:03000000020800F3
:0C080000787FE4F6D8FD758109020847F6
:0408CF00020800011A
:1008B200E4FFFEE4FDFC0DBD00010CBC03F8BDE845
:0C08C200F50FBF00010EEF640A4E70E756
:0108CE002207
:10088C008509A01208B2E50925E0F509E50833F55C
:10089C0008D3E5099480E5086480948040E27508EB
:0608AC000075090180DA6D
:10080C0002088CE493A3F8E493A34003F68001F26E
:10081C0008DFF48029E493A3F85407240CC8C333ED
:10082C00C4540F4420C8834004F456800146F6DFBC
:10083C00E4800B01020408102040809008CFE47E75
:10084C00019360BCA3FF543F30E509541FFEE493B1
:10085C00A360010ECF54C025E060A840B8E493A378
:10086C00FAE493A3F8E493A3C8C582C8CAC583CAA3
:10087C00F0A3C8C582C8CAC583CADFE9DEE780BE5B
:0108D3000024
:00000001FF
